{
  "address": "0xEa88d85599Bedee5C52E0E2d90773b324d61945E",
  "abi": [
    {
      "inputs": [
        {
          "internalType": "string",
          "name": "name",
          "type": "string"
        },
        {
          "internalType": "string",
          "name": "symbol",
          "type": "string"
        },
        {
          "internalType": "string",
          "name": "baseTokenURI",
          "type": "string"
        }
      ],
      "stateMutability": "nonpayable",
      "type": "constructor"
    },
    {
      "anonymous": false,
      "inputs": [
        {
          "indexed": true,
          "internalType": "address",
          "name": "owner",
          "type": "address"
        },
        {
          "indexed": true,
          "internalType": "address",
          "name": "approved",
          "type": "address"
        },
        {
          "indexed": true,
          "internalType": "uint256",
          "name": "tokenId",
          "type": "uint256"
        }
      ],
      "name": "Approval",
      "type": "event"
    },
    {
      "anonymous": false,
      "inputs": [
        {
          "indexed": true,
          "internalType": "address",
          "name": "owner",
          "type": "address"
        },
        {
          "indexed": true,
          "internalType": "address",
          "name": "operator",
          "type": "address"
        },
        {
          "indexed": false,
          "internalType": "bool",
          "name": "approved",
          "type": "bool"
        }
      ],
      "name": "ApprovalForAll",
      "type": "event"
    },
    {
      "anonymous": false,
      "inputs": [
        {
          "indexed": true,
          "internalType": "address",
          "name": "previousOwner",
          "type": "address"
        },
        {
          "indexed": true,
          "internalType": "address",
          "name": "newOwner",
          "type": "address"
        }
      ],
      "name": "OwnershipTransferred",
      "type": "event"
    },
    {
      "anonymous": false,
      "inputs": [
        {
          "indexed": true,
          "internalType": "address",
          "name": "from",
          "type": "address"
        },
        {
          "indexed": true,
          "internalType": "address",
          "name": "to",
          "type": "address"
        },
        {
          "indexed": true,
          "internalType": "uint256",
          "name": "tokenId",
          "type": "uint256"
        }
      ],
      "name": "Transfer",
      "type": "event"
    },
    {
      "inputs": [],
      "name": "MAX_ELEMENTS",
      "outputs": [
        {
          "internalType": "uint256",
          "name": "",
          "type": "uint256"
        }
      ],
      "stateMutability": "view",
      "type": "function"
    },
    {
      "inputs": [
        {
          "internalType": "address",
          "name": "to",
          "type": "address"
        },
        {
          "internalType": "uint256",
          "name": "tokenId",
          "type": "uint256"
        }
      ],
      "name": "approve",
      "outputs": [],
      "stateMutability": "nonpayable",
      "type": "function"
    },
    {
      "inputs": [
        {
          "internalType": "address",
          "name": "owner",
          "type": "address"
        }
      ],
      "name": "balanceOf",
      "outputs": [
        {
          "internalType": "uint256",
          "name": "",
          "type": "uint256"
        }
      ],
      "stateMutability": "view",
      "type": "function"
    },
    {
      "inputs": [],
      "name": "buy",
      "outputs": [],
      "stateMutability": "payable",
      "type": "function"
    },
    {
      "inputs": [
        {
          "internalType": "uint256",
          "name": "tokenId",
          "type": "uint256"
        }
      ],
      "name": "getApproved",
      "outputs": [
        {
          "internalType": "address",
          "name": "",
          "type": "address"
        }
      ],
      "stateMutability": "view",
      "type": "function"
    },
    {
      "inputs": [
        {
          "internalType": "address",
          "name": "owner",
          "type": "address"
        },
        {
          "internalType": "address",
          "name": "operator",
          "type": "address"
        }
      ],
      "name": "isApprovedForAll",
      "outputs": [
        {
          "internalType": "bool",
          "name": "",
          "type": "bool"
        }
      ],
      "stateMutability": "view",
      "type": "function"
    },
    {
      "inputs": [],
      "name": "name",
      "outputs": [
        {
          "internalType": "string",
          "name": "",
          "type": "string"
        }
      ],
      "stateMutability": "view",
      "type": "function"
    },
    {
      "inputs": [],
      "name": "owner",
      "outputs": [
        {
          "internalType": "address",
          "name": "",
          "type": "address"
        }
      ],
      "stateMutability": "view",
      "type": "function"
    },
    {
      "inputs": [
        {
          "internalType": "uint256",
          "name": "tokenId",
          "type": "uint256"
        }
      ],
      "name": "ownerOf",
      "outputs": [
        {
          "internalType": "address",
          "name": "",
          "type": "address"
        }
      ],
      "stateMutability": "view",
      "type": "function"
    },
    {
      "inputs": [],
      "name": "price",
      "outputs": [
        {
          "internalType": "uint256",
          "name": "",
          "type": "uint256"
        }
      ],
      "stateMutability": "view",
      "type": "function"
    },
    {
      "inputs": [],
      "name": "renounceOwnership",
      "outputs": [],
      "stateMutability": "nonpayable",
      "type": "function"
    },
    {
      "inputs": [
        {
          "internalType": "address",
          "name": "from",
          "type": "address"
        },
        {
          "internalType": "address",
          "name": "to",
          "type": "address"
        },
        {
          "internalType": "uint256",
          "name": "tokenId",
          "type": "uint256"
        }
      ],
      "name": "safeTransferFrom",
      "outputs": [],
      "stateMutability": "nonpayable",
      "type": "function"
    },
    {
      "inputs": [
        {
          "internalType": "address",
          "name": "from",
          "type": "address"
        },
        {
          "internalType": "address",
          "name": "to",
          "type": "address"
        },
        {
          "internalType": "uint256",
          "name": "tokenId",
          "type": "uint256"
        },
        {
          "internalType": "bytes",
          "name": "_data",
          "type": "bytes"
        }
      ],
      "name": "safeTransferFrom",
      "outputs": [],
      "stateMutability": "nonpayable",
      "type": "function"
    },
    {
      "inputs": [
        {
          "internalType": "address",
          "name": "operator",
          "type": "address"
        },
        {
          "internalType": "bool",
          "name": "approved",
          "type": "bool"
        }
      ],
      "name": "setApprovalForAll",
      "outputs": [],
      "stateMutability": "nonpayable",
      "type": "function"
    },
    {
      "inputs": [
        {
          "internalType": "bytes4",
          "name": "interfaceId",
          "type": "bytes4"
        }
      ],
      "name": "supportsInterface",
      "outputs": [
        {
          "internalType": "bool",
          "name": "",
          "type": "bool"
        }
      ],
      "stateMutability": "view",
      "type": "function"
    },
    {
      "inputs": [],
      "name": "symbol",
      "outputs": [
        {
          "internalType": "string",
          "name": "",
          "type": "string"
        }
      ],
      "stateMutability": "view",
      "type": "function"
    },
    {
      "inputs": [
        {
          "internalType": "uint256",
          "name": "index",
          "type": "uint256"
        }
      ],
      "name": "tokenByIndex",
      "outputs": [
        {
          "internalType": "uint256",
          "name": "",
          "type": "uint256"
        }
      ],
      "stateMutability": "view",
      "type": "function"
    },
    {
      "inputs": [
        {
          "internalType": "address",
          "name": "owner",
          "type": "address"
        },
        {
          "internalType": "uint256",
          "name": "index",
          "type": "uint256"
        }
      ],
      "name": "tokenOfOwnerByIndex",
      "outputs": [
        {
          "internalType": "uint256",
          "name": "",
          "type": "uint256"
        }
      ],
      "stateMutability": "view",
      "type": "function"
    },
    {
      "inputs": [
        {
          "internalType": "uint256",
          "name": "tokenId",
          "type": "uint256"
        }
      ],
      "name": "tokenURI",
      "outputs": [
        {
          "internalType": "string",
          "name": "",
          "type": "string"
        }
      ],
      "stateMutability": "view",
      "type": "function"
    },
    {
      "inputs": [],
      "name": "totalSupply",
      "outputs": [
        {
          "internalType": "uint256",
          "name": "",
          "type": "uint256"
        }
      ],
      "stateMutability": "view",
      "type": "function"
    },
    {
      "inputs": [
        {
          "internalType": "address",
          "name": "from",
          "type": "address"
        },
        {
          "internalType": "address",
          "name": "to",
          "type": "address"
        },
        {
          "internalType": "uint256",
          "name": "tokenId",
          "type": "uint256"
        }
      ],
      "name": "transferFrom",
      "outputs": [],
      "stateMutability": "nonpayable",
      "type": "function"
    },
    {
      "inputs": [
        {
          "internalType": "address",
          "name": "newOwner",
          "type": "address"
        }
      ],
      "name": "transferOwnership",
      "outputs": [],
      "stateMutability": "nonpayable",
      "type": "function"
    },
    {
      "inputs": [],
      "name": "withdraw",
      "outputs": [],
      "stateMutability": "nonpayable",
      "type": "function"
    }
  ],
  "transactionHash": "0x77aa7dc0b4ee4a1a9bc359b401cee2c7e25cd483face854b3e24c0c317b5b6b2",
  "args": [
    "KawaiiYatsura",
    "KY",
    "https://ipfs.io/ipfs/QmVWcD2MSZcKRcaFpmVAbBqz7sw8eMpTFDyjt8ugZzGxwa/"
  ],
  "solcInputHash": "97229262a16687c5a447a75532c365bc",
  "bytecode": "0x60806040523480156200001157600080fd5b5060405162003c2b38038062003c2b83398181016040528101906200003791906200029f565b82828160009080519060200190620000519291906200017d565b5080600190805190602001906200006a9291906200017d565b5050506200008d62000081620000af60201b60201c565b620000b760201b60201c565b80600b9080519060200190620000a59291906200017d565b50505050620004b0565b600033905090565b6000600a60009054906101000a900473ffffffffffffffffffffffffffffffffffffffff16905081600a60006101000a81548173ffffffffffffffffffffffffffffffffffffffff021916908373ffffffffffffffffffffffffffffffffffffffff1602179055508173ffffffffffffffffffffffffffffffffffffffff168173ffffffffffffffffffffffffffffffffffffffff167f8be0079c531659141344cd1fd0a4f28419497f9722a3daafe3b4186f6b6457e060405160405180910390a35050565b8280546200018b90620003d5565b90600052602060002090601f016020900481019282620001af5760008555620001fb565b82601f10620001ca57805160ff1916838001178555620001fb565b82800160010185558215620001fb579182015b82811115620001fa578251825591602001919060010190620001dd565b5b5090506200020a91906200020e565b5090565b5b80821115620002295760008160009055506001016200020f565b5090565b6000620002446200023e8462000369565b62000340565b9050828152602081018484840111156200025d57600080fd5b6200026a8482856200039f565b509392505050565b600082601f8301126200028457600080fd5b8151620002968482602086016200022d565b91505092915050565b600080600060608486031215620002b557600080fd5b600084015167ffffffffffffffff811115620002d057600080fd5b620002de8682870162000272565b935050602084015167ffffffffffffffff811115620002fc57600080fd5b6200030a8682870162000272565b925050604084015167ffffffffffffffff8111156200032857600080fd5b620003368682870162000272565b9150509250925092565b60006200034c6200035f565b90506200035a82826200040b565b919050565b6000604051905090565b600067ffffffffffffffff82111562000387576200038662000470565b5b62000392826200049f565b9050602081019050919050565b60005b83811015620003bf578082015181840152602081019050620003a2565b83811115620003cf576000848401525b50505050565b60006002820490506001821680620003ee57607f821691505b6020821081141562000405576200040462000441565b5b50919050565b62000416826200049f565b810181811067ffffffffffffffff8211171562000438576200043762000470565b5b80604052505050565b7f4e487b7100000000000000000000000000000000000000000000000000000000600052602260045260246000fd5b7f4e487b7100000000000000000000000000000000000000000000000000000000600052604160045260246000fd5b6000601f19601f8301169050919050565b61376b80620004c06000396000f3fe6080604052600436106101405760003560e01c80636352211e116100b6578063a22cb4651161006f578063a22cb4651461045e578063a6f2ae3a14610487578063b88d4fde14610491578063c87b56dd146104ba578063e985e9c5146104f7578063f2fde38b1461053457610140565b80636352211e1461034c57806370a0823114610389578063715018a6146103c65780638da5cb5b146103dd57806395d89b4114610408578063a035b1fe1461043357610140565b806323b872dd1161010857806323b872dd1461023e5780632f745c59146102675780633502a716146102a45780633ccfd60b146102cf57806342842e0e146102e65780634f6ccce71461030f57610140565b806301ffc9a71461014557806306fdde0314610182578063081812fc146101ad578063095ea7b3146101ea57806318160ddd14610213575b600080fd5b34801561015157600080fd5b5061016c6004803603810190610167919061264d565b61055d565b6040516101799190612adf565b60405180910390f35b34801561018e57600080fd5b5061019761056f565b6040516101a49190612afa565b60405180910390f35b3480156101b957600080fd5b506101d460048036038101906101cf919061269f565b610601565b6040516101e19190612a78565b60405180910390f35b3480156101f657600080fd5b50610211600480360381019061020c9190612611565b610686565b005b34801561021f57600080fd5b5061022861079e565b6040516102359190612d9c565b60405180910390f35b34801561024a57600080fd5b506102656004803603810190610260919061250b565b6107ab565b005b34801561027357600080fd5b5061028e60048036038101906102899190612611565b61080b565b60405161029b9190612d9c565b60405180910390f35b3480156102b057600080fd5b506102b96108b0565b6040516102c69190612d9c565b60405180910390f35b3480156102db57600080fd5b506102e46108b5565b005b3480156102f257600080fd5b5061030d6004803603810190610308919061250b565b610980565b005b34801561031b57600080fd5b506103366004803603810190610331919061269f565b6109a0565b6040516103439190612d9c565b60405180910390f35b34801561035857600080fd5b50610373600480360381019061036e919061269f565b610a37565b6040516103809190612a78565b60405180910390f35b34801561039557600080fd5b506103b060048036038101906103ab91906124a6565b610ae9565b6040516103bd9190612d9c565b60405180910390f35b3480156103d257600080fd5b506103db610ba1565b005b3480156103e957600080fd5b506103f2610c29565b6040516103ff9190612a78565b60405180910390f35b34801561041457600080fd5b5061041d610c53565b60405161042a9190612afa565b60405180910390f35b34801561043f57600080fd5b50610448610ce5565b6040516104559190612d9c565b60405180910390f35b34801561046a57600080fd5b50610485600480360381019061048091906125d5565b610cf1565b005b61048f610e72565b005b34801561049d57600080fd5b506104b860048036038101906104b3919061255a565b610f20565b005b3480156104c657600080fd5b506104e160048036038101906104dc919061269f565b610f82565b6040516104ee9190612afa565b60405180910390f35b34801561050357600080fd5b5061051e600480360381019061051991906124cf565b611029565b60405161052b9190612adf565b60405180910390f35b34801561054057600080fd5b5061055b600480360381019061055691906124a6565b6110bd565b005b6000610568826111b5565b9050919050565b60606000805461057e90612fc1565b80601f01602080910402602001604051908101604052809291908181526020018280546105aa90612fc1565b80156105f75780601f106105cc576101008083540402835291602001916105f7565b820191906000526020600020905b8154815290600101906020018083116105da57829003601f168201915b5050505050905090565b600061060c8261122f565b61064b576040517f08c379a000000000000000000000000000000000000000000000000000000000815260040161064290612cbc565b60405180910390fd5b6004600083815260200190815260200160002060009054906101000a900473ffffffffffffffffffffffffffffffffffffffff169050919050565b600061069182610a37565b90508073ffffffffffffffffffffffffffffffffffffffff168373ffffffffffffffffffffffffffffffffffffffff161415610702576040517f08c379a00000000000000000000000000000000000000000000000000000000081526004016106f990612d3c565b60405180910390fd5b8073ffffffffffffffffffffffffffffffffffffffff1661072161129b565b73ffffffffffffffffffffffffffffffffffffffff161480610750575061074f8161074a61129b565b611029565b5b61078f576040517f08c379a000000000000000000000000000000000000000000000000000000000815260040161078690612c3c565b60405180910390fd5b61079983836112a3565b505050565b6000600880549050905090565b6107bc6107b661129b565b8261135c565b6107fb576040517f08c379a00000000000000000000000000000000000000000000000000000000081526004016107f290612d5c565b60405180910390fd5b61080683838361143a565b505050565b600061081683610ae9565b8210610857576040517f08c379a000000000000000000000000000000000000000000000000000000000815260040161084e90612b1c565b60405180910390fd5b600660008473ffffffffffffffffffffffffffffffffffffffff1673ffffffffffffffffffffffffffffffffffffffff168152602001908152602001600020600083815260200190815260200160002054905092915050565b600a81565b6108bd61129b565b73ffffffffffffffffffffffffffffffffffffffff166108db610c29565b73ffffffffffffffffffffffffffffffffffffffff1614610931576040517f08c379a000000000000000000000000000000000000000000000000000000000815260040161092890612cdc565b60405180910390fd5b60004790503373ffffffffffffffffffffffffffffffffffffffff166108fc829081150290604051600060405180830381858888f1935050505015801561097c573d6000803e3d6000fd5b5050565b61099b83838360405180602001604052806000815250610f20565b505050565b60006109aa61079e565b82106109eb576040517f08c379a00000000000000000000000000000000000000000000000000000000081526004016109e290612d7c565b60405180910390fd5b60088281548110610a25577f4e487b7100000000000000000000000000000000000000000000000000000000600052603260045260246000fd5b90600052602060002001549050919050565b6000806002600084815260200190815260200160002060009054906101000a900473ffffffffffffffffffffffffffffffffffffffff169050600073ffffffffffffffffffffffffffffffffffffffff168173ffffffffffffffffffffffffffffffffffffffff161415610ae0576040517f08c379a0000000000000000000000000000000000000000000000000000000008152600401610ad790612c7c565b60405180910390fd5b80915050919050565b60008073ffffffffffffffffffffffffffffffffffffffff168273ffffffffffffffffffffffffffffffffffffffff161415610b5a576040517f08c379a0000000000000000000000000000000000000000000000000000000008152600401610b5190612c5c565b60405180910390fd5b600360008373ffffffffffffffffffffffffffffffffffffffff1673ffffffffffffffffffffffffffffffffffffffff168152602001908152602001600020549050919050565b610ba961129b565b73ffffffffffffffffffffffffffffffffffffffff16610bc7610c29565b73ffffffffffffffffffffffffffffffffffffffff1614610c1d576040517f08c379a0000000000000000000000000000000000000000000000000000000008152600401610c1490612cdc565b60405180910390fd5b610c276000611696565b565b6000600a60009054906101000a900473ffffffffffffffffffffffffffffffffffffffff16905090565b606060018054610c6290612fc1565b80601f0160208091040260200160405190810160405280929190818152602001828054610c8e90612fc1565b8015610cdb5780601f10610cb057610100808354040283529160200191610cdb565b820191906000526020600020905b815481529060010190602001808311610cbe57829003601f168201915b5050505050905090565b670de0b6b3a764000081565b610cf961129b565b73ffffffffffffffffffffffffffffffffffffffff168273ffffffffffffffffffffffffffffffffffffffff161415610d67576040517f08c379a0000000000000000000000000000000000000000000000000000000008152600401610d5e90612bdc565b60405180910390fd5b8060056000610d7461129b565b73ffffffffffffffffffffffffffffffffffffffff1673ffffffffffffffffffffffffffffffffffffffff16815260200190815260200160002060008473ffffffffffffffffffffffffffffffffffffffff1673ffffffffffffffffffffffffffffffffffffffff16815260200190815260200160002060006101000a81548160ff0219169083151502179055508173ffffffffffffffffffffffffffffffffffffffff16610e2161129b565b73ffffffffffffffffffffffffffffffffffffffff167f17307eab39ab6107e8899845ad3d59bd9653f200f220920489ca2b5937696c3183604051610e669190612adf565b60405180910390a35050565b600a610e7c61079e565b10610ebc576040517f08c379a0000000000000000000000000000000000000000000000000000000008152600401610eb390612b5c565b60405180910390fd5b34670de0b6b3a76400001115610f07576040517f08c379a0000000000000000000000000000000000000000000000000000000008152600401610efe90612bfc565b60405180910390fd5b6000610f1161079e565b9050610f1d338261175c565b50565b610f31610f2b61129b565b8361135c565b610f70576040517f08c379a0000000000000000000000000000000000000000000000000000000008152600401610f6790612d5c565b60405180910390fd5b610f7c8484848461177a565b50505050565b6060610f8d8261122f565b610fcc576040517f08c379a0000000000000000000000000000000000000000000000000000000008152600401610fc390612d1c565b60405180910390fd5b6000610fd66117d6565b90506000815111610ff65760405180602001604052806000815250611021565b8061100084611868565b604051602001611011929190612a54565b6040516020818303038152906040525b915050919050565b6000600560008473ffffffffffffffffffffffffffffffffffffffff1673ffffffffffffffffffffffffffffffffffffffff16815260200190815260200160002060008373ffffffffffffffffffffffffffffffffffffffff1673ffffffffffffffffffffffffffffffffffffffff16815260200190815260200160002060009054906101000a900460ff16905092915050565b6110c561129b565b73ffffffffffffffffffffffffffffffffffffffff166110e3610c29565b73ffffffffffffffffffffffffffffffffffffffff1614611139576040517f08c379a000000000000000000000000000000000000000000000000000000000815260040161113090612cdc565b60405180910390fd5b600073ffffffffffffffffffffffffffffffffffffffff168173ffffffffffffffffffffffffffffffffffffffff1614156111a9576040517f08c379a00000000000000000000000000000000000000000000000000000000081526004016111a090612b7c565b60405180910390fd5b6111b281611696565b50565b60007f780e9d63000000000000000000000000000000000000000000000000000000007bffffffffffffffffffffffffffffffffffffffffffffffffffffffff1916827bffffffffffffffffffffffffffffffffffffffffffffffffffffffff19161480611228575061122782611a15565b5b9050919050565b60008073ffffffffffffffffffffffffffffffffffffffff166002600084815260200190815260200160002060009054906101000a900473ffffffffffffffffffffffffffffffffffffffff1673ffffffffffffffffffffffffffffffffffffffff1614159050919050565b600033905090565b816004600083815260200190815260200160002060006101000a81548173ffffffffffffffffffffffffffffffffffffffff021916908373ffffffffffffffffffffffffffffffffffffffff160217905550808273ffffffffffffffffffffffffffffffffffffffff1661131683610a37565b73ffffffffffffffffffffffffffffffffffffffff167f8c5be1e5ebec7d5bd14f71427d1e84f3dd0314c0f7b2291e5b200ac8c7c3b92560405160405180910390a45050565b60006113678261122f565b6113a6576040517f08c379a000000000000000000000000000000000000000000000000000000000815260040161139d90612c1c565b60405180910390fd5b60006113b183610a37565b90508073ffffffffffffffffffffffffffffffffffffffff168473ffffffffffffffffffffffffffffffffffffffff16148061142057508373ffffffffffffffffffffffffffffffffffffffff1661140884610601565b73ffffffffffffffffffffffffffffffffffffffff16145b8061143157506114308185611029565b5b91505092915050565b8273ffffffffffffffffffffffffffffffffffffffff1661145a82610a37565b73ffffffffffffffffffffffffffffffffffffffff16146114b0576040517f08c379a00000000000000000000000000000000000000000000000000000000081526004016114a790612cfc565b60405180910390fd5b600073ffffffffffffffffffffffffffffffffffffffff168273ffffffffffffffffffffffffffffffffffffffff161415611520576040517f08c379a000000000000000000000000000000000000000000000000000000000815260040161151790612bbc565b60405180910390fd5b61152b838383611af7565b6115366000826112a3565b6001600360008573ffffffffffffffffffffffffffffffffffffffff1673ffffffffffffffffffffffffffffffffffffffff16815260200190815260200160002060008282546115869190612ed7565b925050819055506001600360008473ffffffffffffffffffffffffffffffffffffffff1673ffffffffffffffffffffffffffffffffffffffff16815260200190815260200160002060008282546115dd9190612e50565b92505081905550816002600083815260200190815260200160002060006101000a81548173ffffffffffffffffffffffffffffffffffffffff021916908373ffffffffffffffffffffffffffffffffffffffff160217905550808273ffffffffffffffffffffffffffffffffffffffff168473ffffffffffffffffffffffffffffffffffffffff167fddf252ad1be2c89b69c2b068fc378daa952ba7f163c4a11628f55a4df523b3ef60405160405180910390a4505050565b6000600a60009054906101000a900473ffffffffffffffffffffffffffffffffffffffff16905081600a60006101000a81548173ffffffffffffffffffffffffffffffffffffffff021916908373ffffffffffffffffffffffffffffffffffffffff1602179055508173ffffffffffffffffffffffffffffffffffffffff168173ffffffffffffffffffffffffffffffffffffffff167f8be0079c531659141344cd1fd0a4f28419497f9722a3daafe3b4186f6b6457e060405160405180910390a35050565b611776828260405180602001604052806000815250611b07565b5050565b61178584848461143a565b61179184848484611b62565b6117d0576040517f08c379a00000000000000000000000000000000000000000000000000000000081526004016117c790612b3c565b60405180910390fd5b50505050565b6060600b80546117e590612fc1565b80601f016020809104026020016040519081016040528092919081815260200182805461181190612fc1565b801561185e5780601f106118335761010080835404028352916020019161185e565b820191906000526020600020905b81548152906001019060200180831161184157829003601f168201915b5050505050905090565b606060008214156118b0576040518060400160405280600181526020017f30000000000000000000000000000000000000000000000000000000000000008152509050611a10565b600082905060005b600082146118e25780806118cb90613024565b915050600a826118db9190612ea6565b91506118b8565b60008167ffffffffffffffff811115611924577f4e487b7100000000000000000000000000000000000000000000000000000000600052604160045260246000fd5b6040519080825280601f01601f1916602001820160405280156119565781602001600182028036833780820191505090505b5090505b60008514611a095760018261196f9190612ed7565b9150600a8561197e919061306d565b603061198a9190612e50565b60f81b8183815181106119c6577f4e487b7100000000000000000000000000000000000000000000000000000000600052603260045260246000fd5b60200101907effffffffffffffffffffffffffffffffffffffffffffffffffffffffffffff1916908160001a905350600a85611a029190612ea6565b945061195a565b8093505050505b919050565b60007f80ac58cd000000000000000000000000000000000000000000000000000000007bffffffffffffffffffffffffffffffffffffffffffffffffffffffff1916827bffffffffffffffffffffffffffffffffffffffffffffffffffffffff19161480611ae057507f5b5e139f000000000000000000000000000000000000000000000000000000007bffffffffffffffffffffffffffffffffffffffffffffffffffffffff1916827bffffffffffffffffffffffffffffffffffffffffffffffffffffffff1916145b80611af05750611aef82611cf9565b5b9050919050565b611b02838383611d63565b505050565b611b118383611e77565b611b1e6000848484611b62565b611b5d576040517f08c379a0000000000000000000000000000000000000000000000000000000008152600401611b5490612b3c565b60405180910390fd5b505050565b6000611b838473ffffffffffffffffffffffffffffffffffffffff16612045565b15611cec578373ffffffffffffffffffffffffffffffffffffffff1663150b7a02611bac61129b565b8786866040518563ffffffff1660e01b8152600401611bce9493929190612a93565b602060405180830381600087803b158015611be857600080fd5b505af1925050508015611c1957506040513d601f19601f82011682018060405250810190611c169190612676565b60015b611c9c573d8060008114611c49576040519150601f19603f3d011682016040523d82523d6000602084013e611c4e565b606091505b50600081511415611c94576040517f08c379a0000000000000000000000000000000000000000000000000000000008152600401611c8b90612b3c565b60405180910390fd5b805181602001fd5b63150b7a0260e01b7bffffffffffffffffffffffffffffffffffffffffffffffffffffffff1916817bffffffffffffffffffffffffffffffffffffffffffffffffffffffff191614915050611cf1565b600190505b949350505050565b60007f01ffc9a7000000000000000000000000000000000000000000000000000000007bffffffffffffffffffffffffffffffffffffffffffffffffffffffff1916827bffffffffffffffffffffffffffffffffffffffffffffffffffffffff1916149050919050565b611d6e838383612058565b600073ffffffffffffffffffffffffffffffffffffffff168373ffffffffffffffffffffffffffffffffffffffff161415611db157611dac8161205d565b611df0565b8173ffffffffffffffffffffffffffffffffffffffff168373ffffffffffffffffffffffffffffffffffffffff1614611def57611dee83826120a6565b5b5b600073ffffffffffffffffffffffffffffffffffffffff168273ffffffffffffffffffffffffffffffffffffffff161415611e3357611e2e81612213565b611e72565b8273ffffffffffffffffffffffffffffffffffffffff168273ffffffffffffffffffffffffffffffffffffffff1614611e7157611e708282612356565b5b5b505050565b600073ffffffffffffffffffffffffffffffffffffffff168273ffffffffffffffffffffffffffffffffffffffff161415611ee7576040517f08c379a0000000000000000000000000000000000000000000000000000000008152600401611ede90612c9c565b60405180910390fd5b611ef08161122f565b15611f30576040517f08c379a0000000000000000000000000000000000000000000000000000000008152600401611f2790612b9c565b60405180910390fd5b611f3c60008383611af7565b6001600360008473ffffffffffffffffffffffffffffffffffffffff1673ffffffffffffffffffffffffffffffffffffffff1681526020019081526020016000206000828254611f8c9190612e50565b92505081905550816002600083815260200190815260200160002060006101000a81548173ffffffffffffffffffffffffffffffffffffffff021916908373ffffffffffffffffffffffffffffffffffffffff160217905550808273ffffffffffffffffffffffffffffffffffffffff16600073ffffffffffffffffffffffffffffffffffffffff167fddf252ad1be2c89b69c2b068fc378daa952ba7f163c4a11628f55a4df523b3ef60405160405180910390a45050565b600080823b905060008111915050919050565b505050565b6008805490506009600083815260200190815260200160002081905550600881908060018154018082558091505060019003906000526020600020016000909190919091505550565b600060016120b384610ae9565b6120bd9190612ed7565b90506000600760008481526020019081526020016000205490508181146121a2576000600660008673ffffffffffffffffffffffffffffffffffffffff1673ffffffffffffffffffffffffffffffffffffffff168152602001908152602001600020600084815260200190815260200160002054905080600660008773ffffffffffffffffffffffffffffffffffffffff1673ffffffffffffffffffffffffffffffffffffffff168152602001908152602001600020600084815260200190815260200160002081905550816007600083815260200190815260200160002081905550505b6007600084815260200190815260200160002060009055600660008573ffffffffffffffffffffffffffffffffffffffff1673ffffffffffffffffffffffffffffffffffffffff16815260200190815260200160002060008381526020019081526020016000206000905550505050565b600060016008805490506122279190612ed7565b905060006009600084815260200190815260200160002054905060006008838154811061227d577f4e487b7100000000000000000000000000000000000000000000000000000000600052603260045260246000fd5b9060005260206000200154905080600883815481106122c5577f4e487b7100000000000000000000000000000000000000000000000000000000600052603260045260246000fd5b90600052602060002001819055508160096000838152602001908152602001600020819055506009600085815260200190815260200160002060009055600880548061233a577f4e487b7100000000000000000000000000000000000000000000000000000000600052603160045260246000fd5b6001900381819060005260206000200160009055905550505050565b600061236183610ae9565b905081600660008573ffffffffffffffffffffffffffffffffffffffff1673ffffffffffffffffffffffffffffffffffffffff168152602001908152602001600020600083815260200190815260200160002081905550806007600084815260200190815260200160002081905550505050565b60006123e86123e384612ddc565b612db7565b90508281526020810184848401111561240057600080fd5b61240b848285612f7f565b509392505050565b600081359050612422816136d9565b92915050565b600081359050612437816136f0565b92915050565b60008135905061244c81613707565b92915050565b60008151905061246181613707565b92915050565b600082601f83011261247857600080fd5b81356124888482602086016123d5565b91505092915050565b6000813590506124a08161371e565b92915050565b6000602082840312156124b857600080fd5b60006124c684828501612413565b91505092915050565b600080604083850312156124e257600080fd5b60006124f085828601612413565b925050602061250185828601612413565b9150509250929050565b60008060006060848603121561252057600080fd5b600061252e86828701612413565b935050602061253f86828701612413565b925050604061255086828701612491565b9150509250925092565b6000806000806080858703121561257057600080fd5b600061257e87828801612413565b945050602061258f87828801612413565b93505060406125a087828801612491565b925050606085013567ffffffffffffffff8111156125bd57600080fd5b6125c987828801612467565b91505092959194509250565b600080604083850312156125e857600080fd5b60006125f685828601612413565b925050602061260785828601612428565b9150509250929050565b6000806040838503121561262457600080fd5b600061263285828601612413565b925050602061264385828601612491565b9150509250929050565b60006020828403121561265f57600080fd5b600061266d8482850161243d565b91505092915050565b60006020828403121561268857600080fd5b600061269684828501612452565b91505092915050565b6000602082840312156126b157600080fd5b60006126bf84828501612491565b91505092915050565b6126d181612f0b565b82525050565b6126e081612f1d565b82525050565b60006126f182612e0d565b6126fb8185612e23565b935061270b818560208601612f8e565b6127148161315a565b840191505092915050565b600061272a82612e18565b6127348185612e34565b9350612744818560208601612f8e565b61274d8161315a565b840191505092915050565b600061276382612e18565b61276d8185612e45565b935061277d818560208601612f8e565b80840191505092915050565b6000612796602b83612e34565b91506127a18261316b565b604082019050919050565b60006127b9603283612e34565b91506127c4826131ba565b604082019050919050565b60006127dc602883612e34565b91506127e782613209565b604082019050919050565b60006127ff602683612e34565b915061280a82613258565b604082019050919050565b6000612822601c83612e34565b915061282d826132a7565b602082019050919050565b6000612845602483612e34565b9150612850826132d0565b604082019050919050565b6000612868601983612e34565b91506128738261331f565b602082019050919050565b600061288b601f83612e34565b915061289682613348565b602082019050919050565b60006128ae602c83612e34565b91506128b982613371565b604082019050919050565b60006128d1603883612e34565b91506128dc826133c0565b604082019050919050565b60006128f4602a83612e34565b91506128ff8261340f565b604082019050919050565b6000612917602983612e34565b91506129228261345e565b604082019050919050565b600061293a602083612e34565b9150612945826134ad565b602082019050919050565b600061295d602c83612e34565b9150612968826134d6565b604082019050919050565b6000612980602083612e34565b915061298b82613525565b602082019050919050565b60006129a3602983612e34565b91506129ae8261354e565b604082019050919050565b60006129c6602f83612e34565b91506129d18261359d565b604082019050919050565b60006129e9602183612e34565b91506129f4826135ec565b604082019050919050565b6000612a0c603183612e34565b9150612a178261363b565b604082019050919050565b6000612a2f602c83612e34565b9150612a3a8261368a565b604082019050919050565b612a4e81612f75565b82525050565b6000612a608285612758565b9150612a6c8284612758565b91508190509392505050565b6000602082019050612a8d60008301846126c8565b92915050565b6000608082019050612aa860008301876126c8565b612ab560208301866126c8565b612ac26040830185612a45565b8181036060830152612ad481846126e6565b905095945050505050565b6000602082019050612af460008301846126d7565b92915050565b60006020820190508181036000830152612b14818461271f565b905092915050565b60006020820190508181036000830152612b3581612789565b9050919050565b60006020820190508181036000830152612b55816127ac565b9050919050565b60006020820190508181036000830152612b75816127cf565b9050919050565b60006020820190508181036000830152612b95816127f2565b9050919050565b60006020820190508181036000830152612bb581612815565b9050919050565b60006020820190508181036000830152612bd581612838565b9050919050565b60006020820190508181036000830152612bf58161285b565b9050919050565b60006020820190508181036000830152612c158161287e565b9050919050565b60006020820190508181036000830152612c35816128a1565b9050919050565b60006020820190508181036000830152612c55816128c4565b9050919050565b60006020820190508181036000830152612c75816128e7565b9050919050565b60006020820190508181036000830152612c958161290a565b9050919050565b60006020820190508181036000830152612cb58161292d565b9050919050565b60006020820190508181036000830152612cd581612950565b9050919050565b60006020820190508181036000830152612cf581612973565b9050919050565b60006020820190508181036000830152612d1581612996565b9050919050565b60006020820190508181036000830152612d35816129b9565b9050919050565b60006020820190508181036000830152612d55816129dc565b9050919050565b60006020820190508181036000830152612d75816129ff565b9050919050565b60006020820190508181036000830152612d9581612a22565b9050919050565b6000602082019050612db16000830184612a45565b92915050565b6000612dc1612dd2565b9050612dcd8282612ff3565b919050565b6000604051905090565b600067ffffffffffffffff821115612df757612df661312b565b5b612e008261315a565b9050602081019050919050565b600081519050919050565b600081519050919050565b600082825260208201905092915050565b600082825260208201905092915050565b600081905092915050565b6000612e5b82612f75565b9150612e6683612f75565b9250827fffffffffffffffffffffffffffffffffffffffffffffffffffffffffffffffff03821115612e9b57612e9a61309e565b5b828201905092915050565b6000612eb182612f75565b9150612ebc83612f75565b925082612ecc57612ecb6130cd565b5b828204905092915050565b6000612ee282612f75565b9150612eed83612f75565b925082821015612f0057612eff61309e565b5b828203905092915050565b6000612f1682612f55565b9050919050565b60008115159050919050565b60007fffffffff0000000000000000000000000000000000000000000000000000000082169050919050565b600073ffffffffffffffffffffffffffffffffffffffff82169050919050565b6000819050919050565b82818337600083830152505050565b60005b83811015612fac578082015181840152602081019050612f91565b83811115612fbb576000848401525b50505050565b60006002820490506001821680612fd957607f821691505b60208210811415612fed57612fec6130fc565b5b50919050565b612ffc8261315a565b810181811067ffffffffffffffff8211171561301b5761301a61312b565b5b80604052505050565b600061302f82612f75565b91507fffffffffffffffffffffffffffffffffffffffffffffffffffffffffffffffff8214156130625761306161309e565b5b600182019050919050565b600061307882612f75565b915061308383612f75565b925082613093576130926130cd565b5b828206905092915050565b7f4e487b7100000000000000000000000000000000000000000000000000000000600052601160045260246000fd5b7f4e487b7100000000000000000000000000000000000000000000000000000000600052601260045260246000fd5b7f4e487b7100000000000000000000000000000000000000000000000000000000600052602260045260246000fd5b7f4e487b7100000000000000000000000000000000000000000000000000000000600052604160045260246000fd5b6000601f19601f8301169050919050565b7f455243373231456e756d657261626c653a206f776e657220696e646578206f7560008201527f74206f6620626f756e6473000000000000000000000000000000000000000000602082015250565b7f4552433732313a207472616e7366657220746f206e6f6e20455243373231526560008201527f63656976657220696d706c656d656e7465720000000000000000000000000000602082015250565b7f507572636861736520776f756c6420657863656564206d617820737570706c7960008201527f206f66204e465473000000000000000000000000000000000000000000000000602082015250565b7f4f776e61626c653a206e6577206f776e657220697320746865207a65726f206160008201527f6464726573730000000000000000000000000000000000000000000000000000602082015250565b7f4552433732313a20746f6b656e20616c7265616479206d696e74656400000000600082015250565b7f4552433732313a207472616e7366657220746f20746865207a65726f2061646460008201527f7265737300000000000000000000000000000000000000000000000000000000602082015250565b7f4552433732313a20617070726f766520746f2063616c6c657200000000000000600082015250565b7f45746865722076616c75652073656e74206973206e6f7420636f727265637400600082015250565b7f4552433732313a206f70657261746f7220717565727920666f72206e6f6e657860008201527f697374656e7420746f6b656e0000000000000000000000000000000000000000602082015250565b7f4552433732313a20617070726f76652063616c6c6572206973206e6f74206f7760008201527f6e6572206e6f7220617070726f76656420666f7220616c6c0000000000000000602082015250565b7f4552433732313a2062616c616e636520717565727920666f7220746865207a6560008201527f726f206164647265737300000000000000000000000000000000000000000000602082015250565b7f4552433732313a206f776e657220717565727920666f72206e6f6e657869737460008201527f656e7420746f6b656e0000000000000000000000000000000000000000000000602082015250565b7f4552433732313a206d696e7420746f20746865207a65726f2061646472657373600082015250565b7f4552433732313a20617070726f76656420717565727920666f72206e6f6e657860008201527f697374656e7420746f6b656e0000000000000000000000000000000000000000602082015250565b7f4f776e61626c653a2063616c6c6572206973206e6f7420746865206f776e6572600082015250565b7f4552433732313a207472616e73666572206f6620746f6b656e2074686174206960008201527f73206e6f74206f776e0000000000000000000000000000000000000000000000602082015250565b7f4552433732314d657461646174613a2055524920717565727920666f72206e6f60008201527f6e6578697374656e7420746f6b656e0000000000000000000000000000000000602082015250565b7f4552433732313a20617070726f76616c20746f2063757272656e74206f776e6560008201527f7200000000000000000000000000000000000000000000000000000000000000602082015250565b7f4552433732313a207472616e736665722063616c6c6572206973206e6f74206f60008201527f776e6572206e6f7220617070726f766564000000000000000000000000000000602082015250565b7f455243373231456e756d657261626c653a20676c6f62616c20696e646578206f60008201527f7574206f6620626f756e64730000000000000000000000000000000000000000602082015250565b6136e281612f0b565b81146136ed57600080fd5b50565b6136f981612f1d565b811461370457600080fd5b50565b61371081612f29565b811461371b57600080fd5b50565b61372781612f75565b811461373257600080fd5b5056fea26469706673582212200332e40cebd1b235bcb6c858b82484dbf0b6e5ae26c18afc7d9a650af2e4339664736f6c63430008040033",
  "devdoc": {
    "kind": "dev",
    "methods": {
      "approve(address,uint256)": {
        "details": "See {IERC721-approve}."
      },
      "balanceOf(address)": {
        "details": "See {IERC721-balanceOf}."
      },
      "getApproved(uint256)": {
        "details": "See {IERC721-getApproved}."
      },
      "isApprovedForAll(address,address)": {
        "details": "See {IERC721-isApprovedForAll}."
      },
      "name()": {
        "details": "See {IERC721Metadata-name}."
      },
      "owner()": {
        "details": "Returns the address of the current owner."
      },
      "ownerOf(uint256)": {
        "details": "See {IERC721-ownerOf}."
      },
      "renounceOwnership()": {
        "details": "Leaves the contract without owner. It will not be possible to call `onlyOwner` functions anymore. Can only be called by the current owner. NOTE: Renouncing ownership will leave the contract without an owner, thereby removing any functionality that is only available to the owner."
      },
      "safeTransferFrom(address,address,uint256)": {
        "details": "See {IERC721-safeTransferFrom}."
      },
      "safeTransferFrom(address,address,uint256,bytes)": {
        "details": "See {IERC721-safeTransferFrom}."
      },
      "setApprovalForAll(address,bool)": {
        "details": "See {IERC721-setApprovalForAll}."
      },
      "supportsInterface(bytes4)": {
        "details": "See {IERC165-supportsInterface}."
      },
      "symbol()": {
        "details": "See {IERC721Metadata-symbol}."
      },
      "tokenByIndex(uint256)": {
        "details": "See {IERC721Enumerable-tokenByIndex}."
      },
      "tokenOfOwnerByIndex(address,uint256)": {
        "details": "See {IERC721Enumerable-tokenOfOwnerByIndex}."
      },
      "tokenURI(uint256)": {
        "details": "See {IERC721Metadata-tokenURI}."
      },
      "totalSupply()": {
        "details": "See {IERC721Enumerable-totalSupply}."
      },
      "transferFrom(address,address,uint256)": {
        "details": "See {IERC721-transferFrom}."
      },
      "transferOwnership(address)": {
        "details": "Transfers ownership of the contract to a new account (`newOwner`). Can only be called by the current owner."
      }
    },
    "version": 1
  },
  "userdoc": {
    "kind": "user",
    "methods": {},
    "version": 1
  },
  "storageLayout": {
    "storage": [
      {
        "astId": 129,
        "contract": "contracts/KawaiiYatsura.sol:KawaiiYatsura",
        "label": "_name",
        "offset": 0,
        "slot": "0",
        "type": "t_string_storage"
      },
      {
        "astId": 131,
        "contract": "contracts/KawaiiYatsura.sol:KawaiiYatsura",
        "label": "_symbol",
        "offset": 0,
        "slot": "1",
        "type": "t_string_storage"
      },
      {
        "astId": 135,
        "contract": "contracts/KawaiiYatsura.sol:KawaiiYatsura",
        "label": "_owners",
        "offset": 0,
        "slot": "2",
        "type": "t_mapping(t_uint256,t_address)"
      },
      {
        "astId": 139,
        "contract": "contracts/KawaiiYatsura.sol:KawaiiYatsura",
        "label": "_balances",
        "offset": 0,
        "slot": "3",
        "type": "t_mapping(t_address,t_uint256)"
      },
      {
        "astId": 143,
        "contract": "contracts/KawaiiYatsura.sol:KawaiiYatsura",
        "label": "_tokenApprovals",
        "offset": 0,
        "slot": "4",
        "type": "t_mapping(t_uint256,t_address)"
      },
      {
        "astId": 149,
        "contract": "contracts/KawaiiYatsura.sol:KawaiiYatsura",
        "label": "_operatorApprovals",
        "offset": 0,
        "slot": "5",
        "type": "t_mapping(t_address,t_mapping(t_address,t_bool))"
      },
      {
        "astId": 1068,
        "contract": "contracts/KawaiiYatsura.sol:KawaiiYatsura",
        "label": "_ownedTokens",
        "offset": 0,
        "slot": "6",
        "type": "t_mapping(t_address,t_mapping(t_uint256,t_uint256))"
      },
      {
        "astId": 1072,
        "contract": "contracts/KawaiiYatsura.sol:KawaiiYatsura",
        "label": "_ownedTokensIndex",
        "offset": 0,
        "slot": "7",
        "type": "t_mapping(t_uint256,t_uint256)"
      },
      {
        "astId": 1075,
        "contract": "contracts/KawaiiYatsura.sol:KawaiiYatsura",
        "label": "_allTokens",
        "offset": 0,
        "slot": "8",
        "type": "t_array(t_uint256)dyn_storage"
      },
      {
        "astId": 1079,
        "contract": "contracts/KawaiiYatsura.sol:KawaiiYatsura",
        "label": "_allTokensIndex",
        "offset": 0,
        "slot": "9",
        "type": "t_mapping(t_uint256,t_uint256)"
      },
      {
        "astId": 7,
        "contract": "contracts/KawaiiYatsura.sol:KawaiiYatsura",
        "label": "_owner",
        "offset": 0,
        "slot": "10",
        "type": "t_address"
      },
      {
        "astId": 2339,
        "contract": "contracts/KawaiiYatsura.sol:KawaiiYatsura",
        "label": "_baseTokenURI",
        "offset": 0,
        "slot": "11",
        "type": "t_string_storage"
      }
    ],
    "types": {
      "t_address": {
        "encoding": "inplace",
        "label": "address",
        "numberOfBytes": "20"
      },
      "t_array(t_uint256)dyn_storage": {
        "base": "t_uint256",
        "encoding": "dynamic_array",
        "label": "uint256[]",
        "numberOfBytes": "32"
      },
      "t_bool": {
        "encoding": "inplace",
        "label": "bool",
        "numberOfBytes": "1"
      },
      "t_mapping(t_address,t_bool)": {
        "encoding": "mapping",
        "key": "t_address",
        "label": "mapping(address => bool)",
        "numberOfBytes": "32",
        "value": "t_bool"
      },
      "t_mapping(t_address,t_mapping(t_address,t_bool))": {
        "encoding": "mapping",
        "key": "t_address",
        "label": "mapping(address => mapping(address => bool))",
        "numberOfBytes": "32",
        "value": "t_mapping(t_address,t_bool)"
      },
      "t_mapping(t_address,t_mapping(t_uint256,t_uint256))": {
        "encoding": "mapping",
        "key": "t_address",
        "label": "mapping(address => mapping(uint256 => uint256))",
        "numberOfBytes": "32",
        "value": "t_mapping(t_uint256,t_uint256)"
      },
      "t_mapping(t_address,t_uint256)": {
        "encoding": "mapping",
        "key": "t_address",
        "label": "mapping(address => uint256)",
        "numberOfBytes": "32",
        "value": "t_uint256"
      },
      "t_mapping(t_uint256,t_address)": {
        "encoding": "mapping",
        "key": "t_uint256",
        "label": "mapping(uint256 => address)",
        "numberOfBytes": "32",
        "value": "t_address"
      },
      "t_mapping(t_uint256,t_uint256)": {
        "encoding": "mapping",
        "key": "t_uint256",
        "label": "mapping(uint256 => uint256)",
        "numberOfBytes": "32",
        "value": "t_uint256"
      },
      "t_string_storage": {
        "encoding": "bytes",
        "label": "string",
        "numberOfBytes": "32"
      },
      "t_uint256": {
        "encoding": "inplace",
        "label": "uint256",
        "numberOfBytes": "32"
      }
    }
  }
}